{
	"versaGame.sol": {
		"GameContract": {
			"abi": [
				{
					"inputs": [
						{
							"internalType": "uint256",
							"name": "_gameFee",
							"type": "uint256"
						}
					],
					"stateMutability": "nonpayable",
					"type": "constructor"
				},
				{
					"anonymous": false,
					"inputs": [
						{
							"indexed": true,
							"internalType": "address",
							"name": "player",
							"type": "address"
						},
						{
							"indexed": false,
							"internalType": "uint256",
							"name": "feePaid",
							"type": "uint256"
						}
					],
					"name": "PlayerRegistered",
					"type": "event"
				},
				{
					"inputs": [],
					"name": "gameFee",
					"outputs": [
						{
							"internalType": "uint256",
							"name": "",
							"type": "uint256"
						}
					],
					"stateMutability": "view",
					"type": "function"
				},
				{
					"inputs": [
						{
							"internalType": "address",
							"name": "",
							"type": "address"
						}
					],
					"name": "hasPaidToPlay",
					"outputs": [
						{
							"internalType": "bool",
							"name": "",
							"type": "bool"
						}
					],
					"stateMutability": "view",
					"type": "function"
				},
				{
					"inputs": [],
					"name": "owner",
					"outputs": [
						{
							"internalType": "address",
							"name": "",
							"type": "address"
						}
					],
					"stateMutability": "view",
					"type": "function"
				},
				{
					"inputs": [],
					"name": "playGame",
					"outputs": [],
					"stateMutability": "payable",
					"type": "function"
				},
				{
					"inputs": [
						{
							"internalType": "uint256",
							"name": "_newFee",
							"type": "uint256"
						}
					],
					"name": "setGameFee",
					"outputs": [],
					"stateMutability": "nonpayable",
					"type": "function"
				},
				{
					"inputs": [],
					"name": "withdraw",
					"outputs": [],
					"stateMutability": "nonpayable",
					"type": "function"
				}
			],
			"devdoc": {
				"kind": "dev",
				"methods": {
					"playGame()": {
						"details": "Allows a player to pay the fee and register for the game."
					},
					"setGameFee(uint256)": {
						"details": "Updates the game fee (owner-only)."
					},
					"withdraw()": {
						"details": "Withdraws contract balance to the owner."
					}
				},
				"version": 1
			},
			"evm": {
				"assembly": "    /* \"versaGame.sol\":61:1247  contract GameContract {... */\n  mstore(0x40, 0x80)\n    /* \"versaGame.sol\":321:417  constructor(uint256 _gameFee) {... */\n  callvalue\n  dup1\n  iszero\n  tag_1\n  jumpi\n  0x00\n  dup1\n  revert\ntag_1:\n  pop\n  mload(0x40)\n  sub(codesize, bytecodeSize)\n  dup1\n  bytecodeSize\n  dup4\n  codecopy\n  dup2\n  add\n  0x40\n  dup2\n  swap1\n  mstore\n  tag_2\n  swap2\n  tag_3\n  jump\t// in\ntag_2:\n    /* \"versaGame.sol\":362:367  owner */\n  0x02\n    /* \"versaGame.sol\":362:380  owner = msg.sender */\n  dup1\n  sload\n  not(sub(shl(0xa0, 0x01), 0x01))\n  and\n    /* \"versaGame.sol\":370:380  msg.sender */\n  caller\n    /* \"versaGame.sol\":362:380  owner = msg.sender */\n  or\n  swap1\n  sstore\n    /* \"versaGame.sol\":362:367  owner */\n  0x00\n    /* \"versaGame.sol\":391:409  gameFee = _gameFee */\n  sstore\n    /* \"versaGame.sol\":61:1247  contract GameContract {... */\n  jump(tag_7)\n    /* \"#utility.yul\":14:198   */\ntag_3:\n    /* \"#utility.yul\":84:90   */\n  0x00\n    /* \"#utility.yul\":137:139   */\n  0x20\n    /* \"#utility.yul\":125:134   */\n  dup3\n    /* \"#utility.yul\":116:123   */\n  dup5\n    /* \"#utility.yul\":112:135   */\n  sub\n    /* \"#utility.yul\":108:140   */\n  slt\n    /* \"#utility.yul\":105:157   */\n  iszero\n  tag_9\n  jumpi\n    /* \"#utility.yul\":153:154   */\n  0x00\n    /* \"#utility.yul\":150:151   */\n  dup1\n    /* \"#utility.yul\":143:155   */\n  revert\n    /* \"#utility.yul\":105:157   */\ntag_9:\n  pop\n    /* \"#utility.yul\":176:192   */\n  mload\n  swap2\n    /* \"#utility.yul\":14:198   */\n  swap1\n  pop\n  jump\t// out\ntag_7:\n    /* \"versaGame.sol\":61:1247  contract GameContract {... */\n  dataSize(sub_0)\n  dup1\n  dataOffset(sub_0)\n  0x00\n  codecopy\n  0x00\n  return\nstop\n\nsub_0: assembly {\n        /* \"versaGame.sol\":61:1247  contract GameContract {... */\n      mstore(0x40, 0x80)\n      jumpi(tag_1, lt(calldatasize, 0x04))\n      shr(0xe0, calldataload(0x00))\n      dup1\n      0x3ccfd60b\n      eq\n      tag_2\n      jumpi\n      dup1\n      0x8da5cb5b\n      eq\n      tag_3\n      jumpi\n      dup1\n      0x9f3b6063\n      eq\n      tag_4\n      jumpi\n      dup1\n      0xa38bcc78\n      eq\n      tag_5\n      jumpi\n      dup1\n      0xaf899735\n      eq\n      tag_6\n      jumpi\n      dup1\n      0xea777eec\n      eq\n      tag_7\n      jumpi\n    tag_1:\n      0x00\n      dup1\n      revert\n        /* \"versaGame.sol\":894:1038  function withdraw() public {... */\n    tag_2:\n      callvalue\n      dup1\n      iszero\n      tag_8\n      jumpi\n      0x00\n      dup1\n      revert\n    tag_8:\n      pop\n      tag_9\n      tag_10\n      jump\t// in\n    tag_9:\n      stop\n        /* \"versaGame.sol\":171:191  address public owner */\n    tag_3:\n      callvalue\n      dup1\n      iszero\n      tag_11\n      jumpi\n      0x00\n      dup1\n      revert\n    tag_11:\n      pop\n      sload(0x02)\n      tag_12\n      swap1\n      sub(shl(0xa0, 0x01), 0x01)\n      and\n      dup2\n      jump\n    tag_12:\n      mload(0x40)\n      sub(shl(0xa0, 0x01), 0x01)\n        /* \"#utility.yul\":178:210   */\n      swap1\n      swap2\n      and\n        /* \"#utility.yul\":160:211   */\n      dup2\n      mstore\n        /* \"#utility.yul\":148:150   */\n      0x20\n        /* \"#utility.yul\":133:151   */\n      add\n        /* \"versaGame.sol\":171:191  address public owner */\n    tag_14:\n      mload(0x40)\n      dup1\n      swap2\n      sub\n      swap1\n      return\n        /* \"versaGame.sol\":119:164  mapping(address => bool) public hasPaidToPlay */\n    tag_4:\n      callvalue\n      dup1\n      iszero\n      tag_16\n      jumpi\n      0x00\n      dup1\n      revert\n    tag_16:\n      pop\n      tag_17\n      tag_18\n      calldatasize\n      0x04\n      tag_19\n      jump\t// in\n    tag_18:\n      mstore(0x20, 0x01)\n      0x00\n      swap1\n      dup2\n      mstore\n      0x40\n      swap1\n      keccak256\n      sload\n      0xff\n      and\n      dup2\n      jump\n    tag_17:\n      mload(0x40)\n        /* \"#utility.yul\":678:692   */\n      swap1\n      iszero\n        /* \"#utility.yul\":671:693   */\n      iszero\n        /* \"#utility.yul\":653:694   */\n      dup2\n      mstore\n        /* \"#utility.yul\":641:643   */\n      0x20\n        /* \"#utility.yul\":626:644   */\n      add\n        /* \"versaGame.sol\":119:164  mapping(address => bool) public hasPaidToPlay */\n      tag_14\n        /* \"#utility.yul\":513:700   */\n      jump\n        /* \"versaGame.sol\":1112:1244  function setGameFee(uint256 _newFee) public {... */\n    tag_5:\n      callvalue\n      dup1\n      iszero\n      tag_23\n      jumpi\n      0x00\n      dup1\n      revert\n    tag_23:\n      pop\n      tag_9\n      tag_25\n      calldatasize\n      0x04\n      tag_26\n      jump\t// in\n    tag_25:\n      tag_27\n      jump\t// in\n        /* \"versaGame.sol\":567:770  function playGame() public payable {... */\n    tag_6:\n      tag_9\n      tag_29\n      jump\t// in\n        /* \"versaGame.sol\":90:112  uint256 public gameFee */\n    tag_7:\n      callvalue\n      dup1\n      iszero\n      tag_30\n      jumpi\n      0x00\n      dup1\n      revert\n    tag_30:\n      pop\n      tag_31\n      sload(0x00)\n      dup2\n      jump\n    tag_31:\n      mload(0x40)\n        /* \"#utility.yul\":1036:1061   */\n      swap1\n      dup2\n      mstore\n        /* \"#utility.yul\":1024:1026   */\n      0x20\n        /* \"#utility.yul\":1009:1027   */\n      add\n        /* \"versaGame.sol\":90:112  uint256 public gameFee */\n      tag_14\n        /* \"#utility.yul\":890:1067   */\n      jump\n        /* \"versaGame.sol\":894:1038  function withdraw() public {... */\n    tag_10:\n        /* \"versaGame.sol\":954:959  owner */\n      and(sub(shl(0xa0, 0x01), 0x01), sload(0x02))\n        /* \"versaGame.sol\":940:950  msg.sender */\n      caller\n        /* \"versaGame.sol\":940:959  msg.sender == owner */\n      eq\n        /* \"versaGame.sol\":932:973  require(msg.sender == owner, \"Not owner\") */\n      tag_36\n      jumpi\n      mload(0x40)\n      shl(0xe5, 0x461bcd)\n      dup2\n      mstore\n        /* \"#utility.yul\":1274:1276   */\n      0x20\n        /* \"versaGame.sol\":932:973  require(msg.sender == owner, \"Not owner\") */\n      0x04\n      dup3\n      add\n        /* \"#utility.yul\":1256:1277   */\n      mstore\n        /* \"#utility.yul\":1313:1314   */\n      0x09\n        /* \"#utility.yul\":1293:1311   */\n      0x24\n      dup3\n      add\n        /* \"#utility.yul\":1286:1315   */\n      mstore\n      shl(0xb9, 0x2737ba1037bbb732b9)\n        /* \"#utility.yul\":1331:1349   */\n      0x44\n      dup3\n      add\n        /* \"#utility.yul\":1324:1363   */\n      mstore\n        /* \"#utility.yul\":1380:1398   */\n      0x64\n      add\n        /* \"versaGame.sol\":932:973  require(msg.sender == owner, \"Not owner\") */\n    tag_37:\n      mload(0x40)\n      dup1\n      swap2\n      sub\n      swap1\n      revert\n    tag_36:\n        /* \"versaGame.sol\":992:997  owner */\n      sload(0x02)\n        /* \"versaGame.sol\":984:1030  payable(owner).transfer(address(this).balance) */\n      mload(0x40)\n      sub(shl(0xa0, 0x01), 0x01)\n        /* \"versaGame.sol\":992:997  owner */\n      swap1\n      swap2\n      and\n      swap1\n        /* \"versaGame.sol\":1008:1029  address(this).balance */\n      selfbalance\n        /* \"versaGame.sol\":984:1030  payable(owner).transfer(address(this).balance) */\n      dup1\n      iszero\n      0x08fc\n      mul\n      swap2\n        /* \"versaGame.sol\":992:997  owner */\n      0x00\n        /* \"versaGame.sol\":984:1030  payable(owner).transfer(address(this).balance) */\n      dup2\n        /* \"versaGame.sol\":992:997  owner */\n      dup2\n        /* \"versaGame.sol\":984:1030  payable(owner).transfer(address(this).balance) */\n      dup2\n        /* \"versaGame.sol\":1008:1029  address(this).balance */\n      dup6\n        /* \"versaGame.sol\":992:997  owner */\n      dup9\n        /* \"versaGame.sol\":984:1030  payable(owner).transfer(address(this).balance) */\n      dup9\n      call\n      swap4\n      pop\n      pop\n      pop\n      pop\n      iszero\n      dup1\n      iszero\n      tag_40\n      jumpi\n      returndatasize\n      0x00\n      dup1\n      returndatacopy\n      revert(0x00, returndatasize)\n    tag_40:\n      pop\n        /* \"versaGame.sol\":894:1038  function withdraw() public {... */\n      jump\t// out\n        /* \"versaGame.sol\":1112:1244  function setGameFee(uint256 _newFee) public {... */\n    tag_27:\n        /* \"versaGame.sol\":1189:1194  owner */\n      and(sub(shl(0xa0, 0x01), 0x01), sload(0x02))\n        /* \"versaGame.sol\":1175:1185  msg.sender */\n      caller\n        /* \"versaGame.sol\":1175:1194  msg.sender == owner */\n      eq\n        /* \"versaGame.sol\":1167:1208  require(msg.sender == owner, \"Not owner\") */\n      tag_42\n      jumpi\n      mload(0x40)\n      shl(0xe5, 0x461bcd)\n      dup2\n      mstore\n        /* \"#utility.yul\":1274:1276   */\n      0x20\n        /* \"versaGame.sol\":1167:1208  require(msg.sender == owner, \"Not owner\") */\n      0x04\n      dup3\n      add\n        /* \"#utility.yul\":1256:1277   */\n      mstore\n        /* \"#utility.yul\":1313:1314   */\n      0x09\n        /* \"#utility.yul\":1293:1311   */\n      0x24\n      dup3\n      add\n        /* \"#utility.yul\":1286:1315   */\n      mstore\n      shl(0xb9, 0x2737ba1037bbb732b9)\n        /* \"#utility.yul\":1331:1349   */\n      0x44\n      dup3\n      add\n        /* \"#utility.yul\":1324:1363   */\n      mstore\n        /* \"#utility.yul\":1380:1398   */\n      0x64\n      add\n        /* \"versaGame.sol\":1167:1208  require(msg.sender == owner, \"Not owner\") */\n      tag_37\n        /* \"#utility.yul\":1072:1404   */\n      jump\n        /* \"versaGame.sol\":1167:1208  require(msg.sender == owner, \"Not owner\") */\n    tag_42:\n        /* \"versaGame.sol\":1219:1226  gameFee */\n      0x00\n        /* \"versaGame.sol\":1219:1236  gameFee = _newFee */\n      sstore\n        /* \"versaGame.sol\":1112:1244  function setGameFee(uint256 _newFee) public {... */\n      jump\t// out\n        /* \"versaGame.sol\":567:770  function playGame() public payable {... */\n    tag_29:\n        /* \"versaGame.sol\":634:641  gameFee */\n      sload(0x00)\n        /* \"versaGame.sol\":621:630  msg.value */\n      callvalue\n        /* \"versaGame.sol\":621:641  msg.value == gameFee */\n      eq\n        /* \"versaGame.sol\":613:664  require(msg.value == gameFee, \"Incorrect fee paid\") */\n      tag_45\n      jumpi\n      mload(0x40)\n      shl(0xe5, 0x461bcd)\n      dup2\n      mstore\n        /* \"#utility.yul\":1611:1613   */\n      0x20\n        /* \"versaGame.sol\":613:664  require(msg.value == gameFee, \"Incorrect fee paid\") */\n      0x04\n      dup3\n      add\n        /* \"#utility.yul\":1593:1614   */\n      mstore\n        /* \"#utility.yul\":1650:1652   */\n      0x12\n        /* \"#utility.yul\":1630:1648   */\n      0x24\n      dup3\n      add\n        /* \"#utility.yul\":1623:1653   */\n      mstore\n      shl(0x72, 0x125b98dbdc9c9958dd08199959481c185a59)\n        /* \"#utility.yul\":1669:1687   */\n      0x44\n      dup3\n      add\n        /* \"#utility.yul\":1662:1710   */\n      mstore\n        /* \"#utility.yul\":1727:1745   */\n      0x64\n      add\n        /* \"versaGame.sol\":613:664  require(msg.value == gameFee, \"Incorrect fee paid\") */\n      tag_37\n        /* \"#utility.yul\":1409:1751   */\n      jump\n        /* \"versaGame.sol\":613:664  require(msg.value == gameFee, \"Incorrect fee paid\") */\n    tag_45:\n        /* \"versaGame.sol\":689:699  msg.sender */\n      caller\n        /* \"versaGame.sol\":675:700  hasPaidToPlay[msg.sender] */\n      0x00\n      dup2\n      dup2\n      mstore\n        /* \"versaGame.sol\":703:707  true */\n      0x01\n        /* \"versaGame.sol\":675:700  hasPaidToPlay[msg.sender] */\n      0x20\n      dup2\n      dup2\n      mstore\n      0x40\n      swap3\n      dup4\n      swap1\n      keccak256\n        /* \"versaGame.sol\":675:707  hasPaidToPlay[msg.sender] = true */\n      dup1\n      sload\n      not(0xff)\n      and\n      swap1\n      swap3\n      or\n      swap1\n      swap2\n      sstore\n        /* \"versaGame.sol\":723:762  PlayerRegistered(msg.sender, msg.value) */\n      swap1\n      mload\n        /* \"versaGame.sol\":752:761  msg.value */\n      callvalue\n        /* \"#utility.yul\":1036:1061   */\n      dup2\n      mstore\n        /* \"versaGame.sol\":723:762  PlayerRegistered(msg.sender, msg.value) */\n      0x324cb0062138d65997c86cd3012489ceb351d602f2f55c7408306e8040c79f3f\n      swap2\n        /* \"#utility.yul\":1009:1027   */\n      add\n        /* \"versaGame.sol\":723:762  PlayerRegistered(msg.sender, msg.value) */\n      mload(0x40)\n      dup1\n      swap2\n      sub\n      swap1\n      log2\n        /* \"versaGame.sol\":567:770  function playGame() public payable {... */\n      jump\t// out\n        /* \"#utility.yul\":222:508   */\n    tag_19:\n        /* \"#utility.yul\":281:287   */\n      0x00\n        /* \"#utility.yul\":334:336   */\n      0x20\n        /* \"#utility.yul\":322:331   */\n      dup3\n        /* \"#utility.yul\":313:320   */\n      dup5\n        /* \"#utility.yul\":309:332   */\n      sub\n        /* \"#utility.yul\":305:337   */\n      slt\n        /* \"#utility.yul\":302:354   */\n      iszero\n      tag_52\n      jumpi\n        /* \"#utility.yul\":350:351   */\n      0x00\n        /* \"#utility.yul\":347:348   */\n      dup1\n        /* \"#utility.yul\":340:352   */\n      revert\n        /* \"#utility.yul\":302:354   */\n    tag_52:\n        /* \"#utility.yul\":376:399   */\n      dup2\n      calldataload\n      sub(shl(0xa0, 0x01), 0x01)\n        /* \"#utility.yul\":428:459   */\n      dup2\n      and\n        /* \"#utility.yul\":418:460   */\n      dup2\n      eq\n        /* \"#utility.yul\":408:478   */\n      tag_53\n      jumpi\n        /* \"#utility.yul\":474:475   */\n      0x00\n        /* \"#utility.yul\":471:472   */\n      dup1\n        /* \"#utility.yul\":464:476   */\n      revert\n        /* \"#utility.yul\":408:478   */\n    tag_53:\n        /* \"#utility.yul\":497:502   */\n      swap4\n        /* \"#utility.yul\":222:508   */\n      swap3\n      pop\n      pop\n      pop\n      jump\t// out\n        /* \"#utility.yul\":705:885   */\n    tag_26:\n        /* \"#utility.yul\":764:770   */\n      0x00\n        /* \"#utility.yul\":817:819   */\n      0x20\n        /* \"#utility.yul\":805:814   */\n      dup3\n        /* \"#utility.yul\":796:803   */\n      dup5\n        /* \"#utility.yul\":792:815   */\n      sub\n        /* \"#utility.yul\":788:820   */\n      slt\n        /* \"#utility.yul\":785:837   */\n      iszero\n      tag_56\n      jumpi\n        /* \"#utility.yul\":833:834   */\n      0x00\n        /* \"#utility.yul\":830:831   */\n      dup1\n        /* \"#utility.yul\":823:835   */\n      revert\n        /* \"#utility.yul\":785:837   */\n    tag_56:\n      pop\n        /* \"#utility.yul\":856:879   */\n      calldataload\n      swap2\n        /* \"#utility.yul\":705:885   */\n      swap1\n      pop\n      jump\t// out\n\n    auxdata: 0xa264697066735822122063939afa5376ee1c1c3e50c8f22f0ea7482f7bf90304819eca66478f2d8d5d6164736f6c63430008140033\n}\n",
				"bytecode": {
					"linkReferences": {},
					"object": "608060405234801561000f575f80fd5b5060405161037938038061037983398101604081905261002e91610047565b600280546001600160a01b031916331790555f5561005e565b5f60208284031215610057575f80fd5b5051919050565b61030e8061006b5f395ff3fe608060405260043610610054575f3560e01c80633ccfd60b146100585780638da5cb5b1461006e5780639f3b6063146100aa578063a38bcc78146100e8578063af89973514610107578063ea777eec1461010f575b5f80fd5b348015610063575f80fd5b5061006c610131565b005b348015610079575f80fd5b5060025461008d906001600160a01b031681565b6040516001600160a01b0390911681526020015b60405180910390f35b3480156100b5575f80fd5b506100d86100c4366004610294565b60016020525f908152604090205460ff1681565b60405190151581526020016100a1565b3480156100f3575f80fd5b5061006c6101023660046102c1565b6101b5565b61006c6101ff565b34801561011a575f80fd5b506101235f5481565b6040519081526020016100a1565b6002546001600160a01b0316331461017c5760405162461bcd60e51b81526020600482015260096024820152682737ba1037bbb732b960b91b60448201526064015b60405180910390fd5b6002546040516001600160a01b03909116904780156108fc02915f818181858888f193505050501580156101b2573d5f803e3d5ffd5b50565b6002546001600160a01b031633146101fb5760405162461bcd60e51b81526020600482015260096024820152682737ba1037bbb732b960b91b6044820152606401610173565b5f55565b5f5434146102445760405162461bcd60e51b8152602060048201526012602482015271125b98dbdc9c9958dd08199959481c185a5960721b6044820152606401610173565b335f81815260016020818152604092839020805460ff191690921790915590513481527f324cb0062138d65997c86cd3012489ceb351d602f2f55c7408306e8040c79f3f910160405180910390a2565b5f602082840312156102a4575f80fd5b81356001600160a01b03811681146102ba575f80fd5b9392505050565b5f602082840312156102d1575f80fd5b503591905056fea264697066735822122063939afa5376ee1c1c3e50c8f22f0ea7482f7bf90304819eca66478f2d8d5d6164736f6c63430008140033",
					"opcodes": "PUSH1 0x80 PUSH1 0x40 MSTORE CALLVALUE DUP1 ISZERO PUSH2 0xF JUMPI PUSH0 DUP1 REVERT JUMPDEST POP PUSH1 0x40 MLOAD PUSH2 0x379 CODESIZE SUB DUP1 PUSH2 0x379 DUP4 CODECOPY DUP2 ADD PUSH1 0x40 DUP2 SWAP1 MSTORE PUSH2 0x2E SWAP2 PUSH2 0x47 JUMP JUMPDEST PUSH1 0x2 DUP1 SLOAD PUSH1 0x1 PUSH1 0x1 PUSH1 0xA0 SHL SUB NOT AND CALLER OR SWAP1 SSTORE PUSH0 SSTORE PUSH2 0x5E JUMP JUMPDEST PUSH0 PUSH1 0x20 DUP3 DUP5 SUB SLT ISZERO PUSH2 0x57 JUMPI PUSH0 DUP1 REVERT JUMPDEST POP MLOAD SWAP2 SWAP1 POP JUMP JUMPDEST PUSH2 0x30E DUP1 PUSH2 0x6B PUSH0 CODECOPY PUSH0 RETURN INVALID PUSH1 0x80 PUSH1 0x40 MSTORE PUSH1 0x4 CALLDATASIZE LT PUSH2 0x54 JUMPI PUSH0 CALLDATALOAD PUSH1 0xE0 SHR DUP1 PUSH4 0x3CCFD60B EQ PUSH2 0x58 JUMPI DUP1 PUSH4 0x8DA5CB5B EQ PUSH2 0x6E JUMPI DUP1 PUSH4 0x9F3B6063 EQ PUSH2 0xAA JUMPI DUP1 PUSH4 0xA38BCC78 EQ PUSH2 0xE8 JUMPI DUP1 PUSH4 0xAF899735 EQ PUSH2 0x107 JUMPI DUP1 PUSH4 0xEA777EEC EQ PUSH2 0x10F JUMPI JUMPDEST PUSH0 DUP1 REVERT JUMPDEST CALLVALUE DUP1 ISZERO PUSH2 0x63 JUMPI PUSH0 DUP1 REVERT JUMPDEST POP PUSH2 0x6C PUSH2 0x131 JUMP JUMPDEST STOP JUMPDEST CALLVALUE DUP1 ISZERO PUSH2 0x79 JUMPI PUSH0 DUP1 REVERT JUMPDEST POP PUSH1 0x2 SLOAD PUSH2 0x8D SWAP1 PUSH1 0x1 PUSH1 0x1 PUSH1 0xA0 SHL SUB AND DUP2 JUMP JUMPDEST PUSH1 0x40 MLOAD PUSH1 0x1 PUSH1 0x1 PUSH1 0xA0 SHL SUB SWAP1 SWAP2 AND DUP2 MSTORE PUSH1 0x20 ADD JUMPDEST PUSH1 0x40 MLOAD DUP1 SWAP2 SUB SWAP1 RETURN JUMPDEST CALLVALUE DUP1 ISZERO PUSH2 0xB5 JUMPI PUSH0 DUP1 REVERT JUMPDEST POP PUSH2 0xD8 PUSH2 0xC4 CALLDATASIZE PUSH1 0x4 PUSH2 0x294 JUMP JUMPDEST PUSH1 0x1 PUSH1 0x20 MSTORE PUSH0 SWAP1 DUP2 MSTORE PUSH1 0x40 SWAP1 KECCAK256 SLOAD PUSH1 0xFF AND DUP2 JUMP JUMPDEST PUSH1 0x40 MLOAD SWAP1 ISZERO ISZERO DUP2 MSTORE PUSH1 0x20 ADD PUSH2 0xA1 JUMP JUMPDEST CALLVALUE DUP1 ISZERO PUSH2 0xF3 JUMPI PUSH0 DUP1 REVERT JUMPDEST POP PUSH2 0x6C PUSH2 0x102 CALLDATASIZE PUSH1 0x4 PUSH2 0x2C1 JUMP JUMPDEST PUSH2 0x1B5 JUMP JUMPDEST PUSH2 0x6C PUSH2 0x1FF JUMP JUMPDEST CALLVALUE DUP1 ISZERO PUSH2 0x11A JUMPI PUSH0 DUP1 REVERT JUMPDEST POP PUSH2 0x123 PUSH0 SLOAD DUP2 JUMP JUMPDEST PUSH1 0x40 MLOAD SWAP1 DUP2 MSTORE PUSH1 0x20 ADD PUSH2 0xA1 JUMP JUMPDEST PUSH1 0x2 SLOAD PUSH1 0x1 PUSH1 0x1 PUSH1 0xA0 SHL SUB AND CALLER EQ PUSH2 0x17C JUMPI PUSH1 0x40 MLOAD PUSH3 0x461BCD PUSH1 0xE5 SHL DUP2 MSTORE PUSH1 0x20 PUSH1 0x4 DUP3 ADD MSTORE PUSH1 0x9 PUSH1 0x24 DUP3 ADD MSTORE PUSH9 0x2737BA1037BBB732B9 PUSH1 0xB9 SHL PUSH1 0x44 DUP3 ADD MSTORE PUSH1 0x64 ADD JUMPDEST PUSH1 0x40 MLOAD DUP1 SWAP2 SUB SWAP1 REVERT JUMPDEST PUSH1 0x2 SLOAD PUSH1 0x40 MLOAD PUSH1 0x1 PUSH1 0x1 PUSH1 0xA0 SHL SUB SWAP1 SWAP2 AND SWAP1 SELFBALANCE DUP1 ISZERO PUSH2 0x8FC MUL SWAP2 PUSH0 DUP2 DUP2 DUP2 DUP6 DUP9 DUP9 CALL SWAP4 POP POP POP POP ISZERO DUP1 ISZERO PUSH2 0x1B2 JUMPI RETURNDATASIZE PUSH0 DUP1 RETURNDATACOPY RETURNDATASIZE PUSH0 REVERT JUMPDEST POP JUMP JUMPDEST PUSH1 0x2 SLOAD PUSH1 0x1 PUSH1 0x1 PUSH1 0xA0 SHL SUB AND CALLER EQ PUSH2 0x1FB JUMPI PUSH1 0x40 MLOAD PUSH3 0x461BCD PUSH1 0xE5 SHL DUP2 MSTORE PUSH1 0x20 PUSH1 0x4 DUP3 ADD MSTORE PUSH1 0x9 PUSH1 0x24 DUP3 ADD MSTORE PUSH9 0x2737BA1037BBB732B9 PUSH1 0xB9 SHL PUSH1 0x44 DUP3 ADD MSTORE PUSH1 0x64 ADD PUSH2 0x173 JUMP JUMPDEST PUSH0 SSTORE JUMP JUMPDEST PUSH0 SLOAD CALLVALUE EQ PUSH2 0x244 JUMPI PUSH1 0x40 MLOAD PUSH3 0x461BCD PUSH1 0xE5 SHL DUP2 MSTORE PUSH1 0x20 PUSH1 0x4 DUP3 ADD MSTORE PUSH1 0x12 PUSH1 0x24 DUP3 ADD MSTORE PUSH18 0x125B98DBDC9C9958DD08199959481C185A59 PUSH1 0x72 SHL PUSH1 0x44 DUP3 ADD MSTORE PUSH1 0x64 ADD PUSH2 0x173 JUMP JUMPDEST CALLER PUSH0 DUP2 DUP2 MSTORE PUSH1 0x1 PUSH1 0x20 DUP2 DUP2 MSTORE PUSH1 0x40 SWAP3 DUP4 SWAP1 KECCAK256 DUP1 SLOAD PUSH1 0xFF NOT AND SWAP1 SWAP3 OR SWAP1 SWAP2 SSTORE SWAP1 MLOAD CALLVALUE DUP2 MSTORE PUSH32 0x324CB0062138D65997C86CD3012489CEB351D602F2F55C7408306E8040C79F3F SWAP2 ADD PUSH1 0x40 MLOAD DUP1 SWAP2 SUB SWAP1 LOG2 JUMP JUMPDEST PUSH0 PUSH1 0x20 DUP3 DUP5 SUB SLT ISZERO PUSH2 0x2A4 JUMPI PUSH0 DUP1 REVERT JUMPDEST DUP2 CALLDATALOAD PUSH1 0x1 PUSH1 0x1 PUSH1 0xA0 SHL SUB DUP2 AND DUP2 EQ PUSH2 0x2BA JUMPI PUSH0 DUP1 REVERT JUMPDEST SWAP4 SWAP3 POP POP POP JUMP JUMPDEST PUSH0 PUSH1 0x20 DUP3 DUP5 SUB SLT ISZERO PUSH2 0x2D1 JUMPI PUSH0 DUP1 REVERT JUMPDEST POP CALLDATALOAD SWAP2 SWAP1 POP JUMP INVALID LOG2 PUSH5 0x6970667358 0x22 SLT KECCAK256 PUSH4 0x939AFA53 PUSH23 0xEE1C1C3E50C8F22F0EA7482F7BF90304819ECA66478F2D DUP14 0x5D PUSH2 0x6473 PUSH16 0x6C634300081400330000000000000000 "
				},
				"gasEstimates": {
					"creation": {
						"codeDepositCost": "156400",
						"executionCost": "infinite",
						"totalCost": "infinite"
					},
					"external": {
						"gameFee()": "2381",
						"hasPaidToPlay(address)": "2515",
						"owner()": "2325",
						"playGame()": "28043",
						"setGameFee(uint256)": "24505",
						"withdraw()": "infinite"
					}
				},
				"methodIdentifiers": {
					"gameFee()": "ea777eec",
					"hasPaidToPlay(address)": "9f3b6063",
					"owner()": "8da5cb5b",
					"playGame()": "af899735",
					"setGameFee(uint256)": "a38bcc78",
					"withdraw()": "3ccfd60b"
				}
			},
			"storageLayout": {
				"storage": [
					{
						"astId": 3,
						"contract": "versaGame.sol:GameContract",
						"label": "gameFee",
						"offset": 0,
						"slot": "0",
						"type": "t_uint256"
					},
					{
						"astId": 7,
						"contract": "versaGame.sol:GameContract",
						"label": "hasPaidToPlay",
						"offset": 0,
						"slot": "1",
						"type": "t_mapping(t_address,t_bool)"
					},
					{
						"astId": 9,
						"contract": "versaGame.sol:GameContract",
						"label": "owner",
						"offset": 0,
						"slot": "2",
						"type": "t_address"
					}
				],
				"types": {
					"t_address": {
						"encoding": "inplace",
						"label": "address",
						"numberOfBytes": "20"
					},
					"t_bool": {
						"encoding": "inplace",
						"label": "bool",
						"numberOfBytes": "1"
					},
					"t_mapping(t_address,t_bool)": {
						"encoding": "mapping",
						"key": "t_address",
						"label": "mapping(address => bool)",
						"numberOfBytes": "32",
						"value": "t_bool"
					},
					"t_uint256": {
						"encoding": "inplace",
						"label": "uint256",
						"numberOfBytes": "32"
					}
				}
			},
			"userdoc": {
				"kind": "user",
				"methods": {
					"playGame()": {
						"notice": "Emits `PlayerRegistered` on success."
					},
					"withdraw()": {
						"notice": "Only callable by the owner."
					}
				},
				"version": 1
			}
		}
	}
}